:100000000C9446000C9465000C9465000C946500FB
:100010000C9465000C9465000C9465000C946500CC
:100020000C9465000C9465000C9465000C946500BC
:100030000C9465000C94DE000C9465000C94650033
:100040000C9465000C9465000C9465000C9465009C
:100050000C9465000C9465000C9465000C9465008C
:100060000C9465000C9465000C9465000C9465007C
:100070000C9465000C9465000C9465000C9465006C
:100080000C9465000C9465000C94650011241FBE4F
:10009000CFEFD0E4DEBFCDBF11E0A0E0B1E0E4E3FC
:1000A000FAE000E00BBF02C007900D92A233B10747
:1000B000D9F721E0A2E3B1E001C01D92AF33B2074E
:1000C000E1F70E945A030C9418050C940000CF939A
:1000D000DF9300D01F92CDB7DEB789837B836A831D
:1000E00089818A3031F48A819B81BC018DE00E9434
:1000F000670080EC90E0FC018081882F90E08072A6
:100100009927892BB1F386EC90E02981FC012083AB
:1001100080E090E00F900F900F90DF91CF910895C5
:10012000CF93DF93CDB7DEB781E890E02BE0FC0101
:10013000208388E890E02DE730E0FC0131832083C4
:100140008FE690E022E0FC01208384E890E0FC014F
:100150001182108280912E0190912F01A091300187
:10016000B09131018093350190933601A09337010E
:10017000B09338018FE590E02FE530E0F901208160
:100180002068FC0120830000DF91CF910895CF9378
:10019000DF93CDB7DEB781E890E0FC01108200006C
:1001A000DF91CF910895CF93DF93CDB7DEB781E094
:1001B000809334010000DF91CF9108951F920F9238
:1001C00000905F000F92112400905B000F922F931C
:1001D0003F934F935F936F937F938F939F93AF93CF
:1001E000BF93EF93FF93CF93DF93CDB7DEB78091AB
:1001F000350190913601A0913701B09138010197F6
:10020000A109B1098093350190933601A09337017C
:10021000B09338018091350190913601A09137015A
:10022000B0913801892B8A2B8B2B91F40E94D3003B
:1002300080912E0190912F01A0913001B091310158
:100240008093350190933601A0933701B093380124
:100250000000DF91CF91FF91EF91BF91AF919F91FE
:100260008F917F916F915F914F913F912F910F905F
:1002700000925B000F9000925F000F901F90189506
:10028000CF93DF9300D000D0CDB7DEB769837A83F8
:100290008B839C8389819A81AB81BC8180932E0161
:1002A00090932F01A0933001B093310180912E01E2
:1002B00090912F01A0913001B091310180933501CF
:1002C00090933601A0933701B093380100000F904E
:1002D0000F900F900F90DF91CF9108950F931F9380
:1002E000CF93DF9300D000D0CDB7DEB769837A8398
:1002F0008B839C838091390190913A01A0913B01BD
:10030000B0913C019C01AD0169817A818B819C8116
:100310000E948403882309F477C020E030E0A9011B
:1003200069817A818B819C810E948403882351F4A6
:1003300081E990E021E930E0F90120812870FC0199
:10034000208309C081E990E021E930E0F9012081B2
:100350002360FC01208328E539E344E75FE36981FA
:100360007A818B819C810E948403882344F488E9EC
:1003700090E02FEF3FEFFC013183208334C020E079
:1003800034E244EF56E469817A818B819C810E943A
:10039000A604181634F488E990E0FC01118210825A
:1003A00022C008E910E020E030E040E053E4698139
:1003B0007A818B819C810E94AB04DC01CB019C0182
:1003C000AD0160E074E284EF9AE40E948903DC01ED
:1003D000CB01BC01CD010E94FB03DC01CB010197E5
:1003E000F8019183808384E990E0FC0111821082FE
:1003F00089819A81AB81BC818093390190933A01C4
:10040000A0933B01B0933C0100000F900F900F9020
:100410000F90DF91CF911F910F910895CF93DF93AC
:10042000CDB7DEB780E990E020E4FC01208381E9CC
:1004300090E02BE0FC01208360E070E0CB010E94A3
:100440006E010000DF91CF910895CF93DF93CDB778
:10045000DEB780E990E0FC01108281E990E0FC01C8
:1004600010820000DF91CF910895CF93DF93CDB735
:10047000DEB780913D0190913E018230910509F4F3
:100480005BC08330910528F4009779F00197A1F0C3
:1004900082C08430910509F45DC08430910508F470
:1004A00052C0059709F470C076C081E090E0909347
:1004B0003E0180933D0174C080E290E0FC018081A8
:1004C000882F90E08095909587709927019739F44F
:1004D00082E090E090933E0180933D0161C080E214
:1004E00090E0FC018081882F90E080959095877046
:1004F0009927029739F483E090E090933E0180932E
:100500003D014EC080E290E0FC018081882F90E0A8
:100510008095909587709927049739F485E090E04D
:1005200090933E0180933D013BC081E090E0909329
:100530003E0180933D0134C084E090E090933E0101
:1005400080933D012DC084E090E090933E01809324
:100550003D0126C080E290E0FC018081882F90E080
:100560008095909587709927892B39F481E090E0E8
:1005700090933E0180933D0113C084E090E09093FE
:100580003E0180933D010CC084E090E090933E01D9
:1005900080933D0105C010923E0110923D01000084
:1005A00080913D0190913E0183309105A1F184300D
:1005B000910538F48130910509F471C0029749F032
:1005C00075C08430910509F46CC0059709F444C0E6
:1005D0006DC080913301873028F4809133018F5FA3
:1005E0008093330180913201813009F05CC08091A9
:1005F0003301882F90E0880F991F880F991F825F21
:100600009E4FFC0180819181A281B381BC01CD010B
:100610000E946E0148C080913301882329F08091A7
:100620003301815080933301809132018130E9F5AB
:1006300080913301882F90E0880F991F880F991FB0
:10064000825F9E4FFC0180819181A281B381BC01B8
:10065000CD010E946E0129C0809132018823B9F436
:1006600081E08093320180913301882F90E0880FE0
:10067000991F880F991F825F9E4FFC018081918195
:10068000A281B381BC01CD010E946E010FC0109206
:10069000320160E070E0CB010E946E0107C00000F3
:1006A00005C0000003C0000001C000000000DF9191
:1006B000CF910895CF93DF93CDB7DEB781E290E07D
:1006C000FC01108282E290E02FEFFC01208384E2A3
:1006D00090E02FEFFC01208385E290E0FC01108286
:1006E00064E670E080E090E00E9440010E9490008B
:1006F0000E940E020E94350200008091340188237E
:10070000E1F310923401F6CF0E94310408F481E045
:1007100008950E949D030C946C040E94650458F097
:100720000E945E0440F029F45F3F29F00C945504C8
:1007300051110C94A0040C945B040E947D0468F396
:100740009923B1F3552391F3951B550BBB27AA278A
:1007500062177307840738F09F5F5F4F220F331FC4
:10076000441FAA1FA9F335D00E2E3AF0E0E832D08C
:1007700091505040E695001CCAF72BD0FE2F29D08F
:10078000660F771F881FBB1F261737074807AB0761
:10079000B0E809F0BB0B802DBF01FF2793585F4FD6
:1007A0003AF09E3F510578F00C9455040C94A00447
:1007B0005F3FE4F3983ED4F3869577956795B795B8
:1007C000F7959F5FC9F7880F911D9695879597F9C3
:1007D0000895E1E0660F771F881FBB1F621773073C
:1007E0008407BA0720F0621B730B840BBA0BEE1F51
:1007F00088F7E09508950E9402046894B1110C9462
:10080000A00408950E94850488F09F5798F0B92F9E
:100810009927B751B0F0E1F0660F771F881F991F35
:100820001AF0BA95C9F714C0B13091F00E949F0434
:10083000B1E008950C949F04672F782F8827B85F44
:1008400039F0B93FCCF3869577956795B395D9F78D
:100850003EF490958095709561957F4F8F4F9F4F97
:100860000895990F0008550FAA0BE0E8FEEF161641
:100870001706E807F907C0F012161306E407F50794
:1008800098F0621B730B840B950B39F40A2661F008
:10089000232B242B252B21F408950A2609F4A140AB
:1008A000A6958FEF811D811D089597F99F6780E8B8
:1008B00070E060E008959FEF80EC089500240A94B2
:1008C0001616170618060906089500240A9412162B
:1008D0001306140605060895092E0394000C11F45E
:1008E000882352F0BB0F40F4BF2B11F460FF04C00B
:1008F0006F5F7F4F8F4F9F4F089557FD9058440F64
:10090000551F59F05F3F71F04795880F97FB991F6E
:1009100061F09F3F79F0879508951216130614062B
:10092000551FF2CF4695F1DF08C0161617061806B8
:10093000991FF1CF86957105610508940895E89493
:10094000BB2766277727CB0197F908950E943104CA
:1009500008F48FEF08950E94BE040C946C040E946A
:100960005E0438F00E94650420F0952311F00C9489
:1009700055040C945B0411240C94A0040E947D0483
:1009800070F3959FC1F3950F50E0551F629FF001E2
:10099000729FBB27F00DB11D639FAA27F00DB11DFB
:1009A000AA1F649F6627B00DA11D661F829F222784
:1009B000B00DA11D621F739FB00DA11D621F839F0B
:1009C000A00D611D221F749F3327A00D611D231FE1
:1009D000849F600D211D822F762F6A2F11249F572F
:1009E00050409AF0F1F088234AF0EE0FFF1FBB1F32
:1009F000661F771F881F91505040A9F79E3F5105F1
:100A000080F00C9455040C94A0045F3FE4F3983EEE
:100A1000D4F3869577956795B795F795E7959F5F9A
:100A2000C1F7FE2B880F911D9695879597F908952C
:040A3000F894FFCF68
:100A34000000000200000000670000000000A4D0D5
:100A440082437BD49243A4D0A443719DAE4300005F
:100A5400C4430000DC43A4F0F64300D00244010088
:020A6400000090
:00000001FF
