:100000000C9446000C9465000C9465000C946500FB
:100010000C9465000C9465000C9465000C946500CC
:100020000C9465000C9465000C9465000C946500BC
:100030000C9465000C94DE000C9465000C94650033
:100040000C9465000C9465000C9465000C9465009C
:100050000C9465000C9465000C9465000C9465008C
:100060000C9465000C9465000C9465000C9465007C
:100070000C9465000C9465000C9465000C9465006C
:100080000C9465000C9465000C94650011241FBE4F
:10009000CFEFD0E4DEBFCDBF11E0A0E0B1E0E4E4FB
:1000A000FAE000E00BBF02C007900D92A231B10749
:1000B000D9F721E0A2E1B1E001C01D92AF31B20752
:1000C000E1F70E9462030C9420050C940000CF938A
:1000D000DF9300D01F92CDB7DEB789837B836A831D
:1000E00089818A3031F48A819B81BC018DE00E9434
:1000F000670080EC90E0FC018081882F90E08072A6
:100100009927892BB1F386EC90E02981FC012083AB
:1001100080E090E00F900F900F90DF91CF910895C5
:10012000CF93DF93CDB7DEB781E890E02BE0FC0101
:10013000208388E890E02DE730E0FC0131832083C4
:100140008FE690E022E0FC01208384E890E0FC014F
:100150001182108280910E0190910F01A0911001E7
:10016000B09111018093150190931601A09317018E
:10017000B09318018FE590E02FE530E0F901208180
:100180002068FC0120830000DF91CF910895CF9378
:10019000DF93CDB7DEB781E890E0FC01108200006C
:1001A000DF91CF910895CF93DF93CDB7DEB781E094
:1001B000809312010000DF91CF9108951F920F925A
:1001C00000905F000F92112400905B000F922F931C
:1001D0003F934F935F936F937F938F939F93AF93CF
:1001E000BF93EF93FF93CF93DF93CDB7DEB78091AB
:1001F000150190911601A0911701B0911801019776
:10020000A109B1098093150190931601A0931701DC
:10021000B09318018091150190911601A0911701DA
:10022000B0911801892B8A2B8B2B91F40E94D3005B
:1002300080910E0190910F01A0911001B0911101D8
:100240008093150190931601A0931701B0931801A4
:100250000000DF91CF91FF91EF91BF91AF919F91FE
:100260008F917F916F915F914F913F912F910F905F
:1002700000925B000F9000925F000F901F90189506
:10028000CF93DF9300D000D0CDB7DEB769837A83F8
:100290008B839C8389819A81AB81BC8180930E0181
:1002A00090930F01A0931001B093110180910E0162
:1002B00090910F01A0911001B0911101809315014F
:1002C00090931601A0931701B093180100000F90AE
:1002D0000F900F900F90DF91CF9108950F931F9380
:1002E000CF93DF9300D000D0CDB7DEB769837A8398
:1002F0008B839C838091190190911A01A0911B011D
:10030000B0911C019C01AD0169817A818B819C8136
:100310000E948C03882309F477C020E030E0A90113
:1003200069817A818B819C810E948C03882351F49E
:1003300081E990E021E930E0F90120812870FC0199
:10034000208309C081E990E021E930E0F9012081B2
:100350002360FC01208328E539E344E75FE36981FA
:100360007A818B819C810E948C03882344F488E9E4
:1003700090E02FEF3FEFFC013183208334C020E079
:1003800034E244EF56E469817A818B819C810E943A
:10039000AE04181634F488E990E0FC011182108252
:1003A00022C008E910E020E030E040E053E4698139
:1003B0007A818B819C810E94B304DC01CB019C017A
:1003C000AD0160E074E284EF9AE40E949103DC01E5
:1003D000CB01BC01CD010E940304DC01CB010197DC
:1003E000F8019183808384E990E0FC0111821082FE
:1003F00089819A81AB81BC818093190190931A0104
:10040000A0931B01B0931C0100000F900F900F9060
:100410000F90DF91CF911F910F910895CF93DF93AC
:10042000CDB7DEB780E990E020E4FC01208381E9CC
:1004300090E02BE0FC01208360E070E0CB010E94A3
:100440006E010000DF91CF910895CF93DF93CDB778
:10045000DEB780E990E0FC01108281E990E0FC01C8
:1004600010820000DF91CF910895CF93DF93CDB735
:10047000DEB780911D0190911E018130910581F0C0
:100480008130910530F08230910511F10397A1F18F
:100490004BC081E090E090931E0180931D0149C004
:1004A00080E290E0FC018081882F90E081709927A4
:1004B000892B39F482E090E090931E0180931D0116
:1004C00038C081E090E090931E0180931D0131C0FF
:1004D0008091130190911401C2973CF083E090E069
:1004E00090931E0180931D0124C082E090E09093C0
:1004F0001E0180931D011DC080E290E0FC018081FF
:10050000882F90E081709927892B39F081E090E065
:1005100090931E0180931D010CC083E090E09093A6
:100520001E0180931D0105C010921E0110921D0135
:10053000000080911D0190911E018230910589F08B
:100540008330910509F4B0C0019709F0B7C060E0AD
:1005500070E0CB010E946E01109214011092130101
:10056000ADC0809113019091140106973CF460E0B6
:1005700070E084EC93E40E946E018CC080911301C2
:10058000909114010C973CF460E070ED82E094E4EB
:100590000E946E017FC080911301909114014397D6
:1005A00034F460E070E0CB010E946E0173C0809172
:1005B00013019091140144973CF460E070E084ECE6
:1005C00093E40E946E0166C0809113019091140122
:1005D00047973CF460E070E08CED93E40E946E017C
:1005E00059C080911301909114014A973CF464EA38
:1005F00070ED82E893E40E946E014CC0809113017B
:10060000909114014D973CF460E070ED82E094E429
:100610000E946E013FC08091130190911401839755
:100620003CF46BE774ED82E993E40E946E0132C002
:10063000809113019091140185973CF464EA70ED68
:1006400084EA93E40E946E0125C080911301909189
:100650001401879734F460E070E0CB010E946E01D2
:1006600019C080911301909114018C973CF460E0C3
:1006700070ED82E094E40E946E010CC08091130141
:1006800090911401C29734F461E77DE98EEA93E416
:100690000E946E0180911301909114010196909334
:1006A0001401809313010AC060E070E0CB010E9446
:1006B0006E01109214011092130100000000DF91EE
:1006C000CF910895CF93DF93CDB7DEB781E290E06D
:1006D000FC01108282E290E02FEFFC01208384E293
:1006E00090E02FEFFC01208385E290E0FC01108276
:1006F00064E670E080E090E00E9440010E9490007B
:100700000E940E020E94350200008091120188238F
:10071000E1F310921201F6CF0E94390408F481E04F
:1007200008950E94A5030C9474040E946D0458F06F
:100730000E94660440F029F45F3F29F00C945D04A8
:1007400051110C94A8040C9463040E94850468F36E
:100750009923B1F3552391F3951B550BBB27AA277A
:1007600062177307840738F09F5F5F4F220F331FB4
:10077000441FAA1FA9F335D00E2E3AF0E0E832D07C
:1007800091505040E695001CCAF72BD0FE2F29D07F
:10079000660F771F881FBB1F261737074807AB0751
:1007A000B0E809F0BB0B802DBF01FF2793585F4FC6
:1007B0003AF09E3F510578F00C945D040C94A80427
:1007C0005F3FE4F3983ED4F3869577956795B795A8
:1007D000F7959F5FC9F7880F911D9695879597F9B3
:1007E0000895E1E0660F771F881FBB1F621773072C
:1007F0008407BA0720F0621B730B840BBA0BEE1F41
:1008000088F7E09508950E940A046894B1110C9449
:10081000A80408950E948D0488F09F5798F0B92F7E
:100820009927B751B0F0E1F0660F771F881F991F25
:100830001AF0BA95C9F714C0B13091F00E94A7041C
:10084000B1E008950C94A704672F782F8827B85F2C
:1008500039F0B93FCCF3869577956795B395D9F77D
:100860003EF490958095709561957F4F8F4F9F4F87
:100870000895990F0008550FAA0BE0E8FEEF161631
:100880001706E807F907C0F012161306E407F50784
:1008900098F0621B730B840B950B39F40A2661F0F8
:1008A000232B242B252B21F408950A2609F4A1409B
:1008B000A6958FEF811D811D089597F99F6780E8A8
:1008C00070E060E008959FEF80EC089500240A94A2
:1008D0001616170618060906089500240A9412161B
:1008E0001306140605060895092E0394000C11F44E
:1008F000882352F0BB0F40F4BF2B11F460FF04C0FB
:100900006F5F7F4F8F4F9F4F089557FD9058440F53
:10091000551F59F05F3F71F04795880F97FB991F5E
:1009200061F09F3F79F0879508951216130614061B
:10093000551FF2CF4695F1DF08C0161617061806A8
:10094000991FF1CF86957105610508940895E89483
:10095000BB2766277727CB0197F908950E943904B2
:1009600008F48FEF08950E94C6040C9474040E944A
:10097000660438F00E946D0420F0952311F00C9469
:100980005D040C94630411240C94A8040E94850453
:1009900070F3959FC1F3950F50E0551F629FF001D2
:1009A000729FBB27F00DB11D639FAA27F00DB11DEB
:1009B000AA1F649F6627B00DA11D661F829F222774
:1009C000B00DA11D621F739FB00DA11D621F839FFB
:1009D000A00D611D221F749F3327A00D611D231FD1
:1009E000849F600D211D822F762F6A2F11249F571F
:1009F00050409AF0F1F088234AF0EE0FFF1FBB1F22
:100A0000661F771F881F91505040A9F79E3F5105E0
:100A100080F00C945D040C94A8045F3FE4F3983ECE
:100A2000D4F3869577956795B795F795E7959F5F8A
:100A3000C1F7FE2B880F911D9695879597F908951C
:040A4000F894FFCF58
:100A44000000000200000000670000000000010038
:020A54000000A0
:00000001FF
